{
  "contractName": "LogicV1",
  "abi": [
    {
      "constant": false,
      "inputs": [
        {
          "name": "_newImplementation",
          "type": "address"
        }
      ],
      "name": "updateImplementation",
      "outputs": [],
      "payable": false,
      "stateMutability": "nonpayable",
      "type": "function"
    },
    {
      "constant": true,
      "inputs": [
        {
          "name": "addr",
          "type": "address"
        },
        {
          "name": "roleName",
          "type": "string"
        }
      ],
      "name": "checkRole",
      "outputs": [],
      "payable": false,
      "stateMutability": "view",
      "type": "function"
    },
    {
      "constant": true,
      "inputs": [
        {
          "name": "addr",
          "type": "address"
        },
        {
          "name": "roleName",
          "type": "string"
        }
      ],
      "name": "hasRole",
      "outputs": [
        {
          "name": "",
          "type": "bool"
        }
      ],
      "payable": false,
      "stateMutability": "view",
      "type": "function"
    },
    {
      "constant": true,
      "inputs": [],
      "name": "implementation",
      "outputs": [
        {
          "name": "",
          "type": "address"
        }
      ],
      "payable": false,
      "stateMutability": "view",
      "type": "function"
    },
    {
      "constant": true,
      "inputs": [],
      "name": "owner",
      "outputs": [
        {
          "name": "",
          "type": "address"
        }
      ],
      "payable": false,
      "stateMutability": "view",
      "type": "function"
    },
    {
      "constant": false,
      "inputs": [],
      "name": "disableUpgradability",
      "outputs": [],
      "payable": false,
      "stateMutability": "nonpayable",
      "type": "function"
    },
    {
      "constant": false,
      "inputs": [
        {
          "name": "newOwner",
          "type": "address"
        }
      ],
      "name": "transferOwnership",
      "outputs": [],
      "payable": false,
      "stateMutability": "nonpayable",
      "type": "function"
    },
    {
      "inputs": [],
      "payable": false,
      "stateMutability": "nonpayable",
      "type": "constructor"
    },
    {
      "payable": true,
      "stateMutability": "payable",
      "type": "fallback"
    },
    {
      "anonymous": false,
      "inputs": [
        {
          "indexed": false,
          "name": "addr",
          "type": "address"
        },
        {
          "indexed": false,
          "name": "roleName",
          "type": "string"
        }
      ],
      "name": "RoleAdded",
      "type": "event"
    },
    {
      "anonymous": false,
      "inputs": [
        {
          "indexed": false,
          "name": "addr",
          "type": "address"
        },
        {
          "indexed": false,
          "name": "roleName",
          "type": "string"
        }
      ],
      "name": "RoleRemoved",
      "type": "event"
    },
    {
      "anonymous": false,
      "inputs": [
        {
          "indexed": true,
          "name": "previousOwner",
          "type": "address"
        },
        {
          "indexed": true,
          "name": "newOwner",
          "type": "address"
        }
      ],
      "name": "OwnershipTransferred",
      "type": "event"
    },
    {
      "constant": false,
      "inputs": [
        {
          "name": "amount",
          "type": "uint256"
        }
      ],
      "name": "pay",
      "outputs": [],
      "payable": false,
      "stateMutability": "nonpayable",
      "type": "function"
    },
    {
      "constant": true,
      "inputs": [
        {
          "name": "user",
          "type": "address"
        }
      ],
      "name": "payed",
      "outputs": [
        {
          "name": "",
          "type": "uint256"
        }
      ],
      "payable": false,
      "stateMutability": "view",
      "type": "function"
    },
    {
      "constant": false,
      "inputs": [
        {
          "name": "key",
          "type": "bytes32"
        },
        {
          "name": "digest",
          "type": "bytes32"
        },
        {
          "name": "hashFunction",
          "type": "uint8"
        },
        {
          "name": "size",
          "type": "uint8"
        }
      ],
      "name": "updateHash",
      "outputs": [],
      "payable": false,
      "stateMutability": "nonpayable",
      "type": "function"
    },
    {
      "constant": false,
      "inputs": [
        {
          "name": "key",
          "type": "bytes32"
        }
      ],
      "name": "removeHash",
      "outputs": [],
      "payable": false,
      "stateMutability": "nonpayable",
      "type": "function"
    },
    {
      "constant": true,
      "inputs": [
        {
          "name": "user",
          "type": "address"
        },
        {
          "name": "key",
          "type": "bytes32"
        }
      ],
      "name": "getHash",
      "outputs": [
        {
          "name": "digest",
          "type": "bytes32"
        },
        {
          "name": "hashFunction",
          "type": "uint8"
        },
        {
          "name": "size",
          "type": "uint8"
        }
      ],
      "payable": false,
      "stateMutability": "view",
      "type": "function"
    },
    {
      "constant": true,
      "inputs": [
        {
          "name": "user",
          "type": "address"
        }
      ],
      "name": "getHashes",
      "outputs": [
        {
          "name": "",
          "type": "bytes32[]"
        }
      ],
      "payable": false,
      "stateMutability": "view",
      "type": "function"
    }
  ],
  "bytecode": "0x60806040526001600060146101000a81548160ff02191690831515021790555034801561002b57600080fd5b50600080336000806101000a81548173ffffffffffffffffffffffffffffffffffffffff021916908373ffffffffffffffffffffffffffffffffffffffff16021790555081600460006101000a81548173ffffffffffffffffffffffffffffffffffffffff021916908373ffffffffffffffffffffffffffffffffffffffff16021790555080600160006101000a81548173ffffffffffffffffffffffffffffffffffffffff021916908373ffffffffffffffffffffffffffffffffffffffff160217905550505061113f806101026000396000f3006080604052600436106100c5576000357c0100000000000000000000000000000000000000000000000000000000900463ffffffff168063025b22bc14610148578063060f919b1461018b5780630988ca8c14610212578063193dd2ea1461029b578063217fe6c6146103335780632ea2ee1b146103d45780635c60da1b146104055780636bb0f50e1461045c5780638015da19146104b55780638da5cb5b1461050c578063a1e306d014610563578063c290d6911461057a578063f2fde38b146105a7575b60006100cf6105ea565b9050600073ffffffffffffffffffffffffffffffffffffffff168173ffffffffffffffffffffffffffffffffffffffff161415151561010d57600080fd5b60405136600082376000803683855af43d806000843e8160008114610139576001811461013d57610141565b8184fd5b8184f35b5050505050005b34801561015457600080fd5b50610189600480360381019080803573ffffffffffffffffffffffffffffffffffffffff169060200190929190505050610614565b005b34801561019757600080fd5b506101da600480360381019080803573ffffffffffffffffffffffffffffffffffffffff169060200190929190803560001916906020019092919050505061070a565b6040518084600019166000191681526020018360ff1660ff1681526020018260ff1660ff168152602001935050505060405180910390f35b34801561021e57600080fd5b50610299600480360381019080803573ffffffffffffffffffffffffffffffffffffffff169060200190929190803590602001908201803590602001908080601f016020809104026020016040519081016040528093929190818152602001838380828437820191505050505050919291929050505061078a565b005b3480156102a757600080fd5b506102dc600480360381019080803573ffffffffffffffffffffffffffffffffffffffff16906020019092919050505061080b565b6040518080602001828103825283818151815260200191508051906020019060200280838360005b8381101561031f578082015181840152602081019050610304565b505050509050019250505060405180910390f35b34801561033f57600080fd5b506103ba600480360381019080803573ffffffffffffffffffffffffffffffffffffffff169060200190929190803590602001908201803590602001908080601f016020809104026020016040519081016040528093929190818152602001838380828437820191505050505050919291929050505061085e565b604051808215151515815260200191505060405180910390f35b3480156103e057600080fd5b5061040360048036038101908080356000191690602001909291905050506108e5565b005b34801561041157600080fd5b5061041a6105ea565b604051808273ffffffffffffffffffffffffffffffffffffffff1673ffffffffffffffffffffffffffffffffffffffff16815260200191505060405180910390f35b34801561046857600080fd5b506104b360048036038101908080356000191690602001909291908035600019169060200190929190803560ff169060200190929190803560ff16906020019092919050505061093d565b005b3480156104c157600080fd5b506104f6600480360381019080803573ffffffffffffffffffffffffffffffffffffffff1690602001909291905050506109f8565b6040518082815260200191505060405180910390f35b34801561051857600080fd5b50610521610a44565b604051808273ffffffffffffffffffffffffffffffffffffffff1673ffffffffffffffffffffffffffffffffffffffff16815260200191505060405180910390f35b34801561056f57600080fd5b50610578610a69565b005b34801561058657600080fd5b506105a560048036038101908080359060200190929190505050610ae0565b005b3480156105b357600080fd5b506105e8600480360381019080803573ffffffffffffffffffffffffffffffffffffffff169060200190929190505050610b7e565b005b6000600160009054906101000a900473ffffffffffffffffffffffffffffffffffffffff16905090565b6000809054906101000a900473ffffffffffffffffffffffffffffffffffffffff1673ffffffffffffffffffffffffffffffffffffffff163373ffffffffffffffffffffffffffffffffffffffff1614151561066f57600080fd5b600060149054906101000a900460ff16151561068a57600080fd5b600073ffffffffffffffffffffffffffffffffffffffff168173ffffffffffffffffffffffffffffffffffffffff16141515156106c657600080fd5b80600160006101000a81548173ffffffffffffffffffffffffffffffffffffffff021916908373ffffffffffffffffffffffffffffffffffffffff16021790555050565b6000806000610717611090565b61076b85600360008973ffffffffffffffffffffffffffffffffffffffff1673ffffffffffffffffffffffffffffffffffffffff168152602001908152602001600020600101610cd390919063ffffffff16565b9050806020015181604001518260600151935093509350509250925092565b610807826002836040518082805190602001908083835b6020831015156107c657805182526020820191506020810190506020830392506107a1565b6001836020036101000a0380198251168184511680821785525050505050509050019150509081526020016040518091039020610d6290919063ffffffff16565b5050565b6060610857600360008473ffffffffffffffffffffffffffffffffffffffff1673ffffffffffffffffffffffffffffffffffffffff168152602001908152602001600020600101610d7b565b9050919050565b60006108dd836002846040518082805190602001908083835b60208310151561089c5780518252602082019150602081019050602083039250610877565b6001836020036101000a0380198251168184511680821785525050505050509050019150509081526020016040518091039020610ddb90919063ffffffff16565b905092915050565b61093981600360003373ffffffffffffffffffffffffffffffffffffffff1673ffffffffffffffffffffffffffffffffffffffff168152602001908152602001600020600101610e3490919063ffffffff16565b5050565b6802b5e3af16b1880000600360003373ffffffffffffffffffffffffffffffffffffffff1673ffffffffffffffffffffffffffffffffffffffff168152602001908152602001600020600001541015151561099757600080fd5b6109f184848484600360003373ffffffffffffffffffffffffffffffffffffffff1673ffffffffffffffffffffffffffffffffffffffff168152602001908152602001600020600101610f9e90949392919063ffffffff16565b5050505050565b6000600360008373ffffffffffffffffffffffffffffffffffffffff1673ffffffffffffffffffffffffffffffffffffffff168152602001908152602001600020600001549050919050565b6000809054906101000a900473ffffffffffffffffffffffffffffffffffffffff1681565b6000809054906101000a900473ffffffffffffffffffffffffffffffffffffffff1673ffffffffffffffffffffffffffffffffffffffff163373ffffffffffffffffffffffffffffffffffffffff16141515610ac457600080fd5b60008060146101000a81548160ff021916908315150217905550565b610b3581600360003373ffffffffffffffffffffffffffffffffffffffff1673ffffffffffffffffffffffffffffffffffffffff1681526020019081526020016000206000015461107490919063ffffffff16565b600360003373ffffffffffffffffffffffffffffffffffffffff1673ffffffffffffffffffffffffffffffffffffffff1681526020019081526020016000206000018190555050565b6000809054906101000a900473ffffffffffffffffffffffffffffffffffffffff1673ffffffffffffffffffffffffffffffffffffffff163373ffffffffffffffffffffffffffffffffffffffff16141515610bd957600080fd5b600073ffffffffffffffffffffffffffffffffffffffff168173ffffffffffffffffffffffffffffffffffffffff1614151515610c1557600080fd5b8073ffffffffffffffffffffffffffffffffffffffff166000809054906101000a900473ffffffffffffffffffffffffffffffffffffffff1673ffffffffffffffffffffffffffffffffffffffff167f8be0079c531659141344cd1fd0a4f28419497f9722a3daafe3b4186f6b6457e060405160405180910390a3806000806101000a81548173ffffffffffffffffffffffffffffffffffffffff021916908373ffffffffffffffffffffffffffffffffffffffff16021790555050565b610cdb611090565b826000016000836000191660001916815260200190815260200160002060806040519081016040529081600082015481526020016001820154600019166000191681526020016002820160009054906101000a900460ff1660ff1660ff1681526020016002820160019054906101000a900460ff1660ff1660ff1681525050905092915050565b610d6c8282610ddb565b1515610d7757600080fd5b5050565b606081600101805480602002602001604051908101604052809291908181526020018280548015610dcf57602002820191906000526020600020905b81546000191681526020019060010190808311610db7575b50505050509050919050565b60008260000160008373ffffffffffffffffffffffffffffffffffffffff1673ffffffffffffffffffffffffffffffffffffffff16815260200190815260200160002060009054906101000a900460ff16905092915050565b60008083600001600084600019166000191681526020019081526020016000209050600081600001541415610e6c5760019150610f97565b83600101805490508160000154111515610f92578060000154846000016000866001016001886001018054905003815481101515610ea657fe5b90600052602060002001546000191660001916815260200190815260200160002060000181905550836001016001856001018054905003815481101515610ee957fe5b9060005260206000200154846001016001836000015403815481101515610f0c57fe5b90600052602060002001816000191690555060018460010181818054905003915081610f3891906110c2565b50836000016000846000191660001916815260200190815260200160002060008082016000905560018201600090556002820160006101000a81549060ff02191690556002820160016101000a81549060ff021916905550505b600191505b5092915050565b6000808660000160008760001916600019168152602001908152602001600020905084816001018160001916905550838160020160006101000a81548160ff021916908360ff160217905550828160020160016101000a81548160ff021916908360ff16021790555060008160000154111561101d576001915061106a565b866001018054600101908161103291906110c2565b81600001819055508587600101600183600001540381548110151561105357fe5b906000526020600020018160001916905550600191505b5095945050505050565b6000818301905082811015151561108757fe5b80905092915050565b6080604051908101604052806000815260200160008019168152602001600060ff168152602001600060ff1681525090565b8154818355818111156110e9578183600052602060002091820191016110e891906110ee565b5b505050565b61111091905b8082111561110c5760008160009055506001016110f4565b5090565b905600a165627a7a72305820714be14da96c0b02c3a0c21d79dc1bdec4a6c1d1a71d7ac50abb4f431bd442ee0029",
  "source": "pragma solidity 0.4.24;\n\nimport \"./Proxy.sol\";\nimport \"./Hashes.sol\";\nimport \"openzeppelin-solidity/contracts/token/ERC20/ERC20.sol\";\nimport \"openzeppelin-solidity/contracts/token/ERC20/SafeERC20.sol\";\nimport \"openzeppelin-solidity/contracts/math/SafeMath.sol\";\n\n\ncontract LogicV1 is Proxy {\n  using SafeERC20 for ERC20;\n  using SafeMath for uint256;\n\n  constructor() public\n  Proxy(address(0), address(0))\n  {}\n\n  modifier hasPayed() {\n    require(users[msg.sender].payedAmount >= 50 ether);\n    _;\n  }\n\n  function pay(uint256 amount) external {\n    // ERC20 token = ERC20(diwToken);\n\n    // token.safeTransferFrom(msg.sender, this, amount);\n\n    users[msg.sender].payedAmount = users[msg.sender].payedAmount.add(amount);\n  }\n\n  function payed(address user) external view returns (uint256) {\n    return users[user].payedAmount;\n  }\n\n  function updateHash(bytes32 key, bytes32 digest, uint8 hashFunction, uint8 size) external hasPayed {\n    users[msg.sender].hashes.insert(\n      key,\n      digest,\n      hashFunction,\n      size\n    );\n  }\n\n  function removeHash(bytes32 key) external {\n    users[msg.sender].hashes.remove(key);\n  }\n\n  function getHash(address user, bytes32 key) external view returns (bytes32 digest, uint8 hashFunction, uint8 size) {\n    Hashes.Hash memory hash = users[user].hashes.getHashByKey(key);\n\n    return (\n      hash.digest,\n      hash.hashFunction,\n      hash.size\n    );\n  }\n\n  function getHashes(address user) external view returns (bytes32[]) {\n    return users[user].hashes.getKeys();\n  }\n}",
  "sourcePath": "/mnt/d/work/DigitalIdentificationWallet/diw-dapp/packages/contracts/contracts/LogicV1.sol",
  "compiler": {
    "name": "solc",
    "version": "0.4.24+commit.e67f0147.Emscripten.clang"
  },
  "schemaVersion": "2.0.0",
  "updatedAt": "2018-05-26T13:06:43.882Z"
}